:020000000140BD
:1800400011FE310D311DB400073131759001014B75900201507D017E4A
:18005800017F01DFFEDEFADDF6227C0A748011B8E411C211550411CC24
:1800700011550411D6115504DCEF227C0A748011BDE411C71155041151
:18008800D111550411DB115504DCEF2275900111557590021155759004
:1800A00004115575900811557590101155759020115575904011552298
:1800B80090FF0301C090FF13F02290FF0001CA90FF10F02290FF01018D
:1800D000D490FF11F02290FF0201DE90FF12F02290FF0001E890FF1058
:1800E800E02290FF0101F290FF11E02290FF0201FC90FF12E022900018
:18010000007E007F00E4F0A3DFFBDEF7229000007E807F00E493F0A38B
:18011800DFFADEF6229000007E807F00E493F8E0987005A3DFF6DEF24F
:100130002290FF70F02290FF71F02290FF72F02267
:00000001FF
