:03000000020003F8
:1000030075A001787FE4F6D8FD75A0029040007FCB
:10001300007EC0E4F0A3DFFCDEFA75A00478007F65
:10002300FFE4F208DFFC75A00875A010750CFE75DF
:100033000D0175A02075A04075810D75A080759088
:10004300019000007F007E40759002E4E0F0A3DFA2
:10005300FADEF87590041200627590080200B290FF
:10006300FF70759010F07590202290FF71F0229030
:04007300FF72F02206
:1001190041400301434000014003010B0103080072
:02012900000BC9
:0D012C00AB08AA09A90A74011200F780F3BC
:1000770002012CE493A3F8E493A34003F68001F272
:1000870008DFF48029E493A3F85407240CC8C3338A
:10009700C4540F4420C8834004F456800146F6DF59
:1000A700E4800B0102040810204080900119E47ECF
:1000B700019360BCA3FF543F30E509541FFEE4934E
:1000C700A360010ECF54C025E060A840B8E493A315
:1000D700FAE493A3F8E493A3C8C582C8CAC583CA40
:1000E700F0A3C8C582C8CAC583CADFE9DEE780BEF8
:01012B0000D3
:1000F700BB010989828A83F8E028F022500327F799
:1001070022BBFE05F8E328F3228A838982F8E49369
:0201170028229C
:00000001FF
